{
  "contractName": "MyContract",
  "abi": [
    {
      "inputs": [],
      "stateMutability": "nonpayable",
      "type": "constructor"
    },
    {
      "anonymous": false,
      "inputs": [
        {
          "indexed": false,
          "internalType": "uint256",
          "name": "recordId",
          "type": "uint256"
        },
        {
          "indexed": false,
          "internalType": "address",
          "name": "user",
          "type": "address"
        }
      ],
      "name": "AccessGranted",
      "type": "event"
    },
    {
      "anonymous": false,
      "inputs": [
        {
          "indexed": false,
          "internalType": "uint256",
          "name": "recordId",
          "type": "uint256"
        },
        {
          "indexed": false,
          "internalType": "address",
          "name": "user",
          "type": "address"
        }
      ],
      "name": "AccessRevoked",
      "type": "event"
    },
    {
      "anonymous": false,
      "inputs": [
        {
          "indexed": false,
          "internalType": "uint256",
          "name": "recordId",
          "type": "uint256"
        },
        {
          "indexed": false,
          "internalType": "address",
          "name": "owner",
          "type": "address"
        }
      ],
      "name": "RecordAdded",
      "type": "event"
    },
    {
      "anonymous": false,
      "inputs": [
        {
          "indexed": false,
          "internalType": "uint256",
          "name": "recordId",
          "type": "uint256"
        }
      ],
      "name": "RecordUpdated",
      "type": "event"
    },
    {
      "inputs": [],
      "name": "owner",
      "outputs": [
        {
          "internalType": "address",
          "name": "",
          "type": "address"
        }
      ],
      "stateMutability": "view",
      "type": "function",
      "constant": true
    },
    {
      "inputs": [
        {
          "internalType": "uint256",
          "name": "recordId",
          "type": "uint256"
        },
        {
          "internalType": "string",
          "name": "data",
          "type": "string"
        }
      ],
      "name": "addRecord",
      "outputs": [],
      "stateMutability": "nonpayable",
      "type": "function"
    },
    {
      "inputs": [
        {
          "internalType": "uint256",
          "name": "recordId",
          "type": "uint256"
        },
        {
          "internalType": "string",
          "name": "data",
          "type": "string"
        }
      ],
      "name": "updateRecord",
      "outputs": [],
      "stateMutability": "nonpayable",
      "type": "function"
    },
    {
      "inputs": [
        {
          "internalType": "uint256",
          "name": "recordId",
          "type": "uint256"
        }
      ],
      "name": "getRecord",
      "outputs": [
        {
          "internalType": "string",
          "name": "",
          "type": "string"
        }
      ],
      "stateMutability": "view",
      "type": "function",
      "constant": true
    },
    {
      "inputs": [
        {
          "internalType": "uint256",
          "name": "recordId",
          "type": "uint256"
        },
        {
          "internalType": "address",
          "name": "user",
          "type": "address"
        }
      ],
      "name": "grantAccess",
      "outputs": [],
      "stateMutability": "nonpayable",
      "type": "function"
    },
    {
      "inputs": [
        {
          "internalType": "uint256",
          "name": "recordId",
          "type": "uint256"
        },
        {
          "internalType": "address",
          "name": "user",
          "type": "address"
        }
      ],
      "name": "revokeAccess",
      "outputs": [],
      "stateMutability": "nonpayable",
      "type": "function"
    }
  ],
  "bytecode": "0x608060405234801561000f575f80fd5b50335f806101000a81548173ffffffffffffffffffffffffffffffffffffffff021916908373ffffffffffffffffffffffffffffffffffffffff1602179055506111e78061005c5f395ff3fe608060405234801561000f575f80fd5b5060043610610060575f3560e01c806303e9e609146100645780631c631466146100945780634131d0e3146100b057806365dd152c146100cc5780638da5cb5b146100e8578063d9a5ec1b14610106575b5f80fd5b61007e600480360381019061007991906109ad565b610122565b60405161008b9190610a62565b60405180910390f35b6100ae60048036038101906100a99190610bae565b61032d565b005b6100ca60048036038101906100c59190610bae565b610429565b005b6100e660048036038101906100e19190610c62565b61052f565b005b6100f061067e565b6040516100fd9190610caf565b60405180910390f35b610120600480360381019061011b9190610c62565b6106a1565b005b6060815f805b60015f8481526020019081526020015f20600101805490508110156101e3573373ffffffffffffffffffffffffffffffffffffffff1660015f8581526020019081526020015f20600101828154811061018457610183610cc8565b5b905f5260205f20015f9054906101000a900473ffffffffffffffffffffffffffffffffffffffff1673ffffffffffffffffffffffffffffffffffffffff16036101d057600191506101e3565b80806101db90610d22565b915050610128565b50808061024b57503373ffffffffffffffffffffffffffffffffffffffff1660025f8481526020019081526020015f205f9054906101000a900473ffffffffffffffffffffffffffffffffffffffff1673ffffffffffffffffffffffffffffffffffffffff16145b61028a576040517f08c379a000000000000000000000000000000000000000000000000000000000815260040161028190610db3565b60405180910390fd5b60015f8581526020019081526020015f205f0180546102a890610dfe565b80601f01602080910402602001604051908101604052809291908181526020018280546102d490610dfe565b801561031f5780601f106102f65761010080835404028352916020019161031f565b820191905f5260205f20905b81548152906001019060200180831161030257829003601f168201915b505050505092505050919050565b813373ffffffffffffffffffffffffffffffffffffffff1660025f8381526020019081526020015f205f9054906101000a900473ffffffffffffffffffffffffffffffffffffffff1673ffffffffffffffffffffffffffffffffffffffff16146103cc576040517f08c379a00000000000000000000000000000000000000000000000000000000081526004016103c390610db3565b60405180910390fd5b8160015f8581526020019081526020015f205f0190816103ec9190610fcb565b507fc79bc4f37c11e412901fdfd9d3760462e6729f3ab3d5813e9eb8eda2deecb7bc8360405161041c91906110a9565b60405180910390a1505050565b5f60015f8481526020019081526020015f206001018054905014610482576040517f08c379a00000000000000000000000000000000000000000000000000000000081526004016104799061110c565b60405180910390fd5b8060015f8481526020019081526020015f205f0190816104a29190610fcb565b503360025f8481526020019081526020015f205f6101000a81548173ffffffffffffffffffffffffffffffffffffffff021916908373ffffffffffffffffffffffffffffffffffffffff1602179055507f6afeb99dfbac77dacfc4c38cb125e51d6fbaad0d0aa90aa69df50f23b3cdf295823360405161052392919061112a565b60405180910390a15050565b813373ffffffffffffffffffffffffffffffffffffffff1660025f8381526020019081526020015f205f9054906101000a900473ffffffffffffffffffffffffffffffffffffffff1673ffffffffffffffffffffffffffffffffffffffff16146105ce576040517f08c379a00000000000000000000000000000000000000000000000000000000081526004016105c590610db3565b60405180910390fd5b60015f8481526020019081526020015f2060010182908060018154018082558091505060019003905f5260205f20015f9091909190916101000a81548173ffffffffffffffffffffffffffffffffffffffff021916908373ffffffffffffffffffffffffffffffffffffffff1602179055507f3c3a9147a1fc73dd51a32f4d10c43d457e8cb826eb6f35cac6349eb965ba82b4838360405161067192919061112a565b60405180910390a1505050565b5f8054906101000a900473ffffffffffffffffffffffffffffffffffffffff1681565b813373ffffffffffffffffffffffffffffffffffffffff1660025f8381526020019081526020015f205f9054906101000a900473ffffffffffffffffffffffffffffffffffffffff1673ffffffffffffffffffffffffffffffffffffffff1614610740576040517f08c379a000000000000000000000000000000000000000000000000000000000815260040161073790610db3565b60405180910390fd5b5f5b60015f8581526020019081526020015f2060010180549050811015610963578273ffffffffffffffffffffffffffffffffffffffff1660015f8681526020019081526020015f20600101828154811061079e5761079d610cc8565b5b905f5260205f20015f9054906101000a900473ffffffffffffffffffffffffffffffffffffffff1673ffffffffffffffffffffffffffffffffffffffff16036109505760015f8581526020019081526020015f206001016001805f8781526020019081526020015f20600101805490506108189190611151565b8154811061082957610828610cc8565b5b905f5260205f20015f9054906101000a900473ffffffffffffffffffffffffffffffffffffffff1660015f8681526020019081526020015f20600101828154811061087757610876610cc8565b5b905f5260205f20015f6101000a81548173ffffffffffffffffffffffffffffffffffffffff021916908373ffffffffffffffffffffffffffffffffffffffff16021790555060015f8581526020019081526020015f206001018054806108e0576108df611184565b5b600190038181905f5260205f20015f6101000a81549073ffffffffffffffffffffffffffffffffffffffff021916905590557f125883b94692baebecad9f111ed97ffa626523bbbadc6b0ef85ee1b56b9e52d5848460405161094392919061112a565b60405180910390a1610963565b808061095b90610d22565b915050610742565b50505050565b5f604051905090565b5f80fd5b5f80fd5b5f819050919050565b61098c8161097a565b8114610996575f80fd5b50565b5f813590506109a781610983565b92915050565b5f602082840312156109c2576109c1610972565b5b5f6109cf84828501610999565b91505092915050565b5f81519050919050565b5f82825260208201905092915050565b5f5b83811015610a0f5780820151818401526020810190506109f4565b5f8484015250505050565b5f601f19601f8301169050919050565b5f610a34826109d8565b610a3e81856109e2565b9350610a4e8185602086016109f2565b610a5781610a1a565b840191505092915050565b5f6020820190508181035f830152610a7a8184610a2a565b905092915050565b5f80fd5b5f80fd5b7f4e487b71000000000000000000000000000000000000000000000000000000005f52604160045260245ffd5b610ac082610a1a565b810181811067ffffffffffffffff82111715610adf57610ade610a8a565b5b80604052505050565b5f610af1610969565b9050610afd8282610ab7565b919050565b5f67ffffffffffffffff821115610b1c57610b1b610a8a565b5b610b2582610a1a565b9050602081019050919050565b828183375f83830152505050565b5f610b52610b4d84610b02565b610ae8565b905082815260208101848484011115610b6e57610b6d610a86565b5b610b79848285610b32565b509392505050565b5f82601f830112610b9557610b94610a82565b5b8135610ba5848260208601610b40565b91505092915050565b5f8060408385031215610bc457610bc3610972565b5b5f610bd185828601610999565b925050602083013567ffffffffffffffff811115610bf257610bf1610976565b5b610bfe85828601610b81565b9150509250929050565b5f73ffffffffffffffffffffffffffffffffffffffff82169050919050565b5f610c3182610c08565b9050919050565b610c4181610c27565b8114610c4b575f80fd5b50565b5f81359050610c5c81610c38565b92915050565b5f8060408385031215610c7857610c77610972565b5b5f610c8585828601610999565b9250506020610c9685828601610c4e565b9150509250929050565b610ca981610c27565b82525050565b5f602082019050610cc25f830184610ca0565b92915050565b7f4e487b71000000000000000000000000000000000000000000000000000000005f52603260045260245ffd5b7f4e487b71000000000000000000000000000000000000000000000000000000005f52601160045260245ffd5b5f610d2c8261097a565b91507fffffffffffffffffffffffffffffffffffffffffffffffffffffffffffffffff8203610d5e57610d5d610cf5565b5b600182019050919050565b7f4e6f7420617574686f72697a65640000000000000000000000000000000000005f82015250565b5f610d9d600e836109e2565b9150610da882610d69565b602082019050919050565b5f6020820190508181035f830152610dca81610d91565b9050919050565b7f4e487b71000000000000000000000000000000000000000000000000000000005f52602260045260245ffd5b5f6002820490506001821680610e1557607f821691505b602082108103610e2857610e27610dd1565b5b50919050565b5f819050815f5260205f209050919050565b5f6020601f8301049050919050565b5f82821b905092915050565b5f60088302610e8a7fffffffffffffffffffffffffffffffffffffffffffffffffffffffffffffffff82610e4f565b610e948683610e4f565b95508019841693508086168417925050509392505050565b5f819050919050565b5f610ecf610eca610ec58461097a565b610eac565b61097a565b9050919050565b5f819050919050565b610ee883610eb5565b610efc610ef482610ed6565b848454610e5b565b825550505050565b5f90565b610f10610f04565b610f1b818484610edf565b505050565b5b81811015610f3e57610f335f82610f08565b600181019050610f21565b5050565b601f821115610f8357610f5481610e2e565b610f5d84610e40565b81016020851015610f6c578190505b610f80610f7885610e40565b830182610f20565b50505b505050565b5f82821c905092915050565b5f610fa35f1984600802610f88565b1980831691505092915050565b5f610fbb8383610f94565b9150826002028217905092915050565b610fd4826109d8565b67ffffffffffffffff811115610fed57610fec610a8a565b5b610ff78254610dfe565b611002828285610f42565b5f60209050601f831160018114611033575f8415611021578287015190505b61102b8582610fb0565b865550611092565b601f19841661104186610e2e565b5f5b8281101561106857848901518255600182019150602085019450602081019050611043565b868310156110855784890151611081601f891682610f94565b8355505b6001600288020188555050505b505050505050565b6110a38161097a565b82525050565b5f6020820190506110bc5f83018461109a565b92915050565b7f5265636f726420616c72656164792065786973747300000000000000000000005f82015250565b5f6110f66015836109e2565b9150611101826110c2565b602082019050919050565b5f6020820190508181035f830152611123816110ea565b9050919050565b5f60408201905061113d5f83018561109a565b61114a6020830184610ca0565b9392505050565b5f61115b8261097a565b91506111668361097a565b925082820390508181111561117e5761117d610cf5565b5b92915050565b7f4e487b71000000000000000000000000000000000000000000000000000000005f52603160045260245ffdfea2646970667358221220deaf5ac3d203a4ddc43b524e7fe69582fdd5cb3ba68e7172802653fc7a6c8fc464736f6c63430008150033",
  "immutableReferences": {},
  "source": "//SPDX-License-Identifier: MIT\r\npragma solidity ^0.8.21;\r\n\r\ncontract MyContract {\r\n    address public owner;\r\n\r\n    struct Record {\r\n        string data;\r\n        address[] authorizedUsers;\r\n    }\r\n\r\n    mapping(uint => Record) private records;\r\n    mapping(uint => address) private recordOwners;\r\n\r\n    event RecordAdded(uint recordId, address owner);\r\n    event RecordUpdated(uint recordId);\r\n    event AccessGranted(uint recordId, address user);\r\n    event AccessRevoked(uint recordId, address user);\r\n\r\n    modifier onlyOwner(uint recordId) {\r\n        require(recordOwners[recordId] == msg.sender, \"Not authorized\");\r\n        _;\r\n    }\r\n\r\n    modifier onlyAuthorized(uint recordId) {\r\n        bool isAuthorized = false;\r\n        for (uint i = 0; i < records[recordId].authorizedUsers.length; i++) {\r\n            if (records[recordId].authorizedUsers[i] == msg.sender) {\r\n                isAuthorized = true;\r\n                break;\r\n            }\r\n        }\r\n        require(isAuthorized || recordOwners[recordId] == msg.sender, \"Not authorized\");\r\n        _;\r\n    }\r\n\r\n    constructor() {\r\n        owner = msg.sender;\r\n    }\r\n\r\n    function addRecord(uint recordId, string memory data) public {\r\n        require(records[recordId].authorizedUsers.length == 0, \"Record already exists\");\r\n        records[recordId].data = data;\r\n        recordOwners[recordId] = msg.sender;\r\n        emit RecordAdded(recordId, msg.sender);\r\n    }\r\n\r\n    function updateRecord(uint recordId, string memory data) public onlyOwner(recordId) {\r\n        records[recordId].data = data;\r\n        emit RecordUpdated(recordId);\r\n    }\r\n\r\n    function getRecord(uint recordId) public view onlyAuthorized(recordId) returns (string memory) {\r\n        return records[recordId].data;\r\n    }\r\n\r\n    function grantAccess(uint recordId, address user) public onlyOwner(recordId) {\r\n        records[recordId].authorizedUsers.push(user);\r\n        emit AccessGranted(recordId, user);\r\n    }\r\n\r\n    function revokeAccess(uint recordId, address user) public onlyOwner(recordId) {\r\n        for (uint i = 0; i < records[recordId].authorizedUsers.length; i++) {\r\n            if (records[recordId].authorizedUsers[i] == user) {\r\n                records[recordId].authorizedUsers[i] = records[recordId].authorizedUsers[records[recordId].authorizedUsers.length - 1];\r\n                records[recordId].authorizedUsers.pop();\r\n                emit AccessRevoked(recordId, user);\r\n                break;\r\n            }\r\n        }\r\n    }\r\n}",
  "sourcePath": "C:\\Users\\shouv\\OneDrive\\Attachments\\healthcare\\contracts\\MyContract.sol",
  "compiler": {
    "name": "solc",
    "version": "0.8.21+commit.d9974bed.Emscripten.clang"
  },
  "schemaVersion": "3.4.16",
  "updatedAt": "2025-01-21T19:10:12.012Z",
  "networkType": "ethereum",
  "devdoc": {
    "kind": "dev",
    "methods": {},
    "version": 1
  },
  "userdoc": {
    "kind": "user",
    "methods": {},
    "version": 1
  }
}